{"contracts/HealthRecords.sol":{"HealthRecords":{"abi":[{"inputs":[{"internalType":"string","name":"firebaseId","type":"string"},{"internalType":"string","name":"documentId","type":"string"},{"internalType":"string","name":"fileHash","type":"string"}],"name":"addRecord","outputs":[],"stateMutability":"nonpayable","type":"function"},{"inputs":[{"internalType":"string","name":"firebaseId","type":"string"},{"internalType":"string","name":"documentId","type":"string"},{"internalType":"address","name":"doctor","type":"address"}],"name":"grantAccess","outputs":[],"stateMutability":"nonpayable","type":"function"},{"inputs":[{"internalType":"string","name":"firebaseId","type":"string"},{"internalType":"string","name":"documentId","type":"string"},{"internalType":"address","name":"doctor","type":"address"}],"name":"hasAccess","outputs":[{"internalType":"bool","name":"","type":"bool"}],"stateMutability":"view","type":"function"},{"inputs":[{"internalType":"string","name":"firebaseId","type":"string"},{"internalType":"string","name":"documentId","type":"string"},{"internalType":"address","name":"doctor","type":"address"}],"name":"revokeAccess","outputs":[],"stateMutability":"nonpayable","type":"function"}],"evm":{"bytecode":{"linkReferences":{},"object":"608060405234801561001057600080fd5b50610d03806100206000396000f3fe608060405234801561001057600080fd5b506004361061004c5760003560e01c806309e3141b146100515780633935b076146100815780633f723c621461009d578063a5454021146100b9575b600080fd5b61006b6004803603810190610066919061070c565b6100d5565b60405161007891906107b2565b60405180910390f35b61009b6004803603810190610096919061070c565b610167565b005b6100b760048036038101906100b291906107cd565b6102ae565b005b6100d360048036038101906100ce919061070c565b61040e565b005b600080846040516100e691906108e5565b908152602001604051809103902060020160008373ffffffffffffffffffffffffffffffffffffffff1673ffffffffffffffffffffffffffffffffffffffff1681526020019081526020016000208360405161014291906108e5565b908152602001604051809103902060009054906101000a900460ff1690509392505050565b3373ffffffffffffffffffffffffffffffffffffffff1660008460405161018e91906108e5565b908152602001604051809103902060030160009054906101000a900473ffffffffffffffffffffffffffffffffffffffff1673ffffffffffffffffffffffffffffffffffffffff1614610216576040517f08c379a000000000000000000000000000000000000000000000000000000000815260040161020d90610959565b60405180910390fd5b600160008460405161022891906108e5565b908152602001604051809103902060020160008373ffffffffffffffffffffffffffffffffffffffff1673ffffffffffffffffffffffffffffffffffffffff1681526020019081526020016000208360405161028491906108e5565b908152602001604051809103902060006101000a81548160ff021916908315150217905550505050565b600073ffffffffffffffffffffffffffffffffffffffff166000846040516102d691906108e5565b908152602001604051809103902060030160009054906101000a900473ffffffffffffffffffffffffffffffffffffffff1673ffffffffffffffffffffffffffffffffffffffff161461035e576040517f08c379a0000000000000000000000000000000000000000000000000000000008152600401610355906109c5565b60405180910390fd5b8060008460405161036f91906108e5565b90815260200160405180910390206001018360405161038e91906108e5565b908152602001604051809103902090816103a89190610bfb565b50336000846040516103ba91906108e5565b908152602001604051809103902060030160006101000a81548173ffffffffffffffffffffffffffffffffffffffff021916908373ffffffffffffffffffffffffffffffffffffffff160217905550505050565b3373ffffffffffffffffffffffffffffffffffffffff1660008460405161043591906108e5565b908152602001604051809103902060030160009054906101000a900473ffffffffffffffffffffffffffffffffffffffff1673ffffffffffffffffffffffffffffffffffffffff16146104bd576040517f08c379a00000000000000000000000000000000000000000000000000000000081526004016104b490610959565b60405180910390fd5b600080846040516104ce91906108e5565b908152602001604051809103902060020160008373ffffffffffffffffffffffffffffffffffffffff1673ffffffffffffffffffffffffffffffffffffffff1681526020019081526020016000208360405161052a91906108e5565b908152602001604051809103902060006101000a81548160ff021916908315150217905550505050565b6000604051905090565b600080fd5b600080fd5b600080fd5b600080fd5b6000601f19601f8301169050919050565b7f4e487b7100000000000000000000000000000000000000000000000000000000600052604160045260246000fd5b6105bb82610572565b810181811067ffffffffffffffff821117156105da576105d9610583565b5b80604052505050565b60006105ed610554565b90506105f982826105b2565b919050565b600067ffffffffffffffff82111561061957610618610583565b5b61062282610572565b9050602081019050919050565b82818337600083830152505050565b600061065161064c846105fe565b6105e3565b90508281526020810184848401111561066d5761066c61056d565b5b61067884828561062f565b509392505050565b600082601f83011261069557610694610568565b5b81356106a584826020860161063e565b91505092915050565b600073ffffffffffffffffffffffffffffffffffffffff82169050919050565b60006106d9826106ae565b9050919050565b6106e9816106ce565b81146106f457600080fd5b50565b600081359050610706816106e0565b92915050565b6000806000606084860312156107255761072461055e565b5b600084013567ffffffffffffffff81111561074357610742610563565b5b61074f86828701610680565b935050602084013567ffffffffffffffff8111156107705761076f610563565b5b61077c86828701610680565b925050604061078d868287016106f7565b9150509250925092565b60008115159050919050565b6107ac81610797565b82525050565b60006020820190506107c760008301846107a3565b92915050565b6000806000606084860312156107e6576107e561055e565b5b600084013567ffffffffffffffff81111561080457610803610563565b5b61081086828701610680565b935050602084013567ffffffffffffffff81111561083157610830610563565b5b61083d86828701610680565b925050604084013567ffffffffffffffff81111561085e5761085d610563565b5b61086a86828701610680565b9150509250925092565b600081519050919050565b600081905092915050565b60005b838110156108a857808201518184015260208101905061088d565b60008484015250505050565b60006108bf82610874565b6108c9818561087f565b93506108d981856020860161088a565b80840191505092915050565b60006108f182846108b4565b915081905092915050565b600082825260208201905092915050565b7f556e617574686f72697a65642061636365737300000000000000000000000000600082015250565b60006109436013836108fc565b915061094e8261090d565b602082019050919050565b6000602082019050818103600083015261097281610936565b9050919050565b7f5265636f726420616c7265616479206578697374730000000000000000000000600082015250565b60006109af6015836108fc565b91506109ba82610979565b602082019050919050565b600060208201905081810360008301526109de816109a2565b9050919050565b7f4e487b7100000000000000000000000000000000000000000000000000000000600052602260045260246000fd5b60006002820490506001821680610a2c57607f821691505b602082108103610a3f57610a3e6109e5565b5b50919050565b60008190508160005260206000209050919050565b60006020601f8301049050919050565b600082821b905092915050565b600060088302610aa77fffffffffffffffffffffffffffffffffffffffffffffffffffffffffffffffff82610a6a565b610ab18683610a6a565b95508019841693508086168417925050509392505050565b6000819050919050565b6000819050919050565b6000610af8610af3610aee84610ac9565b610ad3565b610ac9565b9050919050565b6000819050919050565b610b1283610add565b610b26610b1e82610aff565b848454610a77565b825550505050565b600090565b610b3b610b2e565b610b46818484610b09565b505050565b5b81811015610b6a57610b5f600082610b33565b600181019050610b4c565b5050565b601f821115610baf57610b8081610a45565b610b8984610a5a565b81016020851015610b98578190505b610bac610ba485610a5a565b830182610b4b565b50505b505050565b600082821c905092915050565b6000610bd260001984600802610bb4565b1980831691505092915050565b6000610beb8383610bc1565b9150826002028217905092915050565b610c0482610874565b67ffffffffffffffff811115610c1d57610c1c610583565b5b610c278254610a14565b610c32828285610b6e565b600060209050601f831160018114610c655760008415610c53578287015190505b610c5d8582610bdf565b865550610cc5565b601f198416610c7386610a45565b60005b82811015610c9b57848901518255600182019150602085019450602081019050610c76565b86831015610cb85784890151610cb4601f891682610bc1565b8355505b6001600288020188555050505b50505050505056fea26469706673582212201d306082186e2e9d581e95e48d94c2954f7752f2fa08ddab1392837e298de57a64736f6c63430008180033","opcodes":"PUSH1 0x80 PUSH1 0x40 MSTORE CALLVALUE DUP1 ISZERO PUSH2 0x10 JUMPI PUSH1 0x0 DUP1 REVERT JUMPDEST POP PUSH2 0xD03 DUP1 PUSH2 0x20 PUSH1 0x0 CODECOPY PUSH1 0x0 RETURN INVALID PUSH1 0x80 PUSH1 0x40 MSTORE CALLVALUE DUP1 ISZERO PUSH2 0x10 JUMPI PUSH1 0x0 DUP1 REVERT JUMPDEST POP PUSH1 0x4 CALLDATASIZE LT PUSH2 0x4C JUMPI PUSH1 0x0 CALLDATALOAD PUSH1 0xE0 SHR DUP1 PUSH4 0x9E3141B EQ PUSH2 0x51 JUMPI DUP1 PUSH4 0x3935B076 EQ PUSH2 0x81 JUMPI DUP1 PUSH4 0x3F723C62 EQ PUSH2 0x9D JUMPI DUP1 PUSH4 0xA5454021 EQ PUSH2 0xB9 JUMPI JUMPDEST PUSH1 0x0 DUP1 REVERT JUMPDEST PUSH2 0x6B PUSH1 0x4 DUP1 CALLDATASIZE SUB DUP2 ADD SWAP1 PUSH2 0x66 SWAP2 SWAP1 PUSH2 0x70C JUMP JUMPDEST PUSH2 0xD5 JUMP JUMPDEST PUSH1 0x40 MLOAD PUSH2 0x78 SWAP2 SWAP1 PUSH2 0x7B2 JUMP JUMPDEST PUSH1 0x40 MLOAD DUP1 SWAP2 SUB SWAP1 RETURN JUMPDEST PUSH2 0x9B PUSH1 0x4 DUP1 CALLDATASIZE SUB DUP2 ADD SWAP1 PUSH2 0x96 SWAP2 SWAP1 PUSH2 0x70C JUMP JUMPDEST PUSH2 0x167 JUMP JUMPDEST STOP JUMPDEST PUSH2 0xB7 PUSH1 0x4 DUP1 CALLDATASIZE SUB DUP2 ADD SWAP1 PUSH2 0xB2 SWAP2 SWAP1 PUSH2 0x7CD JUMP JUMPDEST PUSH2 0x2AE JUMP JUMPDEST STOP JUMPDEST PUSH2 0xD3 PUSH1 0x4 DUP1 CALLDATASIZE SUB DUP2 ADD SWAP1 PUSH2 0xCE SWAP2 SWAP1 PUSH2 0x70C JUMP JUMPDEST PUSH2 0x40E JUMP JUMPDEST STOP JUMPDEST PUSH1 0x0 DUP1 DUP5 PUSH1 0x40 MLOAD PUSH2 0xE6 SWAP2 SWAP1 PUSH2 0x8E5 JUMP JUMPDEST SWAP1 DUP2 MSTORE PUSH1 0x20 ADD PUSH1 0x40 MLOAD DUP1 SWAP2 SUB SWAP1 KECCAK256 PUSH1 0x2 ADD PUSH1 0x0 DUP4 PUSH20 0xFFFFFFFFFFFFFFFFFFFFFFFFFFFFFFFFFFFFFFFF AND PUSH20 0xFFFFFFFFFFFFFFFFFFFFFFFFFFFFFFFFFFFFFFFF AND DUP2 MSTORE PUSH1 0x20 ADD SWAP1 DUP2 MSTORE PUSH1 0x20 ADD PUSH1 0x0 KECCAK256 DUP4 PUSH1 0x40 MLOAD PUSH2 0x142 SWAP2 SWAP1 PUSH2 0x8E5 JUMP JUMPDEST SWAP1 DUP2 MSTORE PUSH1 0x20 ADD PUSH1 0x40 MLOAD DUP1 SWAP2 SUB SWAP1 KECCAK256 PUSH1 0x0 SWAP1 SLOAD SWAP1 PUSH2 0x100 EXP SWAP1 DIV PUSH1 0xFF AND SWAP1 POP SWAP4 SWAP3 POP POP POP JUMP JUMPDEST CALLER PUSH20 0xFFFFFFFFFFFFFFFFFFFFFFFFFFFFFFFFFFFFFFFF AND PUSH1 0x0 DUP5 PUSH1 0x40 MLOAD PUSH2 0x18E SWAP2 SWAP1 PUSH2 0x8E5 JUMP JUMPDEST SWAP1 DUP2 MSTORE PUSH1 0x20 ADD PUSH1 0x40 MLOAD DUP1 SWAP2 SUB SWAP1 KECCAK256 PUSH1 0x3 ADD PUSH1 0x0 SWAP1 SLOAD SWAP1 PUSH2 0x100 EXP SWAP1 DIV PUSH20 0xFFFFFFFFFFFFFFFFFFFFFFFFFFFFFFFFFFFFFFFF AND PUSH20 0xFFFFFFFFFFFFFFFFFFFFFFFFFFFFFFFFFFFFFFFF AND EQ PUSH2 0x216 JUMPI PUSH1 0x40 MLOAD PUSH32 0x8C379A000000000000000000000000000000000000000000000000000000000 DUP2 MSTORE PUSH1 0x4 ADD PUSH2 0x20D SWAP1 PUSH2 0x959 JUMP JUMPDEST PUSH1 0x40 MLOAD DUP1 SWAP2 SUB SWAP1 REVERT JUMPDEST PUSH1 0x1 PUSH1 0x0 DUP5 PUSH1 0x40 MLOAD PUSH2 0x228 SWAP2 SWAP1 PUSH2 0x8E5 JUMP JUMPDEST SWAP1 DUP2 MSTORE PUSH1 0x20 ADD PUSH1 0x40 MLOAD DUP1 SWAP2 SUB SWAP1 KECCAK256 PUSH1 0x2 ADD PUSH1 0x0 DUP4 PUSH20 0xFFFFFFFFFFFFFFFFFFFFFFFFFFFFFFFFFFFFFFFF AND PUSH20 0xFFFFFFFFFFFFFFFFFFFFFFFFFFFFFFFFFFFFFFFF AND DUP2 MSTORE PUSH1 0x20 ADD SWAP1 DUP2 MSTORE PUSH1 0x20 ADD PUSH1 0x0 KECCAK256 DUP4 PUSH1 0x40 MLOAD PUSH2 0x284 SWAP2 SWAP1 PUSH2 0x8E5 JUMP JUMPDEST SWAP1 DUP2 MSTORE PUSH1 0x20 ADD PUSH1 0x40 MLOAD DUP1 SWAP2 SUB SWAP1 KECCAK256 PUSH1 0x0 PUSH2 0x100 EXP DUP2 SLOAD DUP2 PUSH1 0xFF MUL NOT AND SWAP1 DUP4 ISZERO ISZERO MUL OR SWAP1 SSTORE POP POP POP POP JUMP JUMPDEST PUSH1 0x0 PUSH20 0xFFFFFFFFFFFFFFFFFFFFFFFFFFFFFFFFFFFFFFFF AND PUSH1 0x0 DUP5 PUSH1 0x40 MLOAD PUSH2 0x2D6 SWAP2 SWAP1 PUSH2 0x8E5 JUMP JUMPDEST SWAP1 DUP2 MSTORE PUSH1 0x20 ADD PUSH1 0x40 MLOAD DUP1 SWAP2 SUB SWAP1 KECCAK256 PUSH1 0x3 ADD PUSH1 0x0 SWAP1 SLOAD SWAP1 PUSH2 0x100 EXP SWAP1 DIV PUSH20 0xFFFFFFFFFFFFFFFFFFFFFFFFFFFFFFFFFFFFFFFF AND PUSH20 0xFFFFFFFFFFFFFFFFFFFFFFFFFFFFFFFFFFFFFFFF AND EQ PUSH2 0x35E JUMPI PUSH1 0x40 MLOAD PUSH32 0x8C379A000000000000000000000000000000000000000000000000000000000 DUP2 MSTORE PUSH1 0x4 ADD PUSH2 0x355 SWAP1 PUSH2 0x9C5 JUMP JUMPDEST PUSH1 0x40 MLOAD DUP1 SWAP2 SUB SWAP1 REVERT JUMPDEST DUP1 PUSH1 0x0 DUP5 PUSH1 0x40 MLOAD PUSH2 0x36F SWAP2 SWAP1 PUSH2 0x8E5 JUMP JUMPDEST SWAP1 DUP2 MSTORE PUSH1 0x20 ADD PUSH1 0x40 MLOAD DUP1 SWAP2 SUB SWAP1 KECCAK256 PUSH1 0x1 ADD DUP4 PUSH1 0x40 MLOAD PUSH2 0x38E SWAP2 SWAP1 PUSH2 0x8E5 JUMP JUMPDEST SWAP1 DUP2 MSTORE PUSH1 0x20 ADD PUSH1 0x40 MLOAD DUP1 SWAP2 SUB SWAP1 KECCAK256 SWAP1 DUP2 PUSH2 0x3A8 SWAP2 SWAP1 PUSH2 0xBFB JUMP JUMPDEST POP CALLER PUSH1 0x0 DUP5 PUSH1 0x40 MLOAD PUSH2 0x3BA SWAP2 SWAP1 PUSH2 0x8E5 JUMP JUMPDEST SWAP1 DUP2 MSTORE PUSH1 0x20 ADD PUSH1 0x40 MLOAD DUP1 SWAP2 SUB SWAP1 KECCAK256 PUSH1 0x3 ADD PUSH1 0x0 PUSH2 0x100 EXP DUP2 SLOAD DUP2 PUSH20 0xFFFFFFFFFFFFFFFFFFFFFFFFFFFFFFFFFFFFFFFF MUL NOT AND SWAP1 DUP4 PUSH20 0xFFFFFFFFFFFFFFFFFFFFFFFFFFFFFFFFFFFFFFFF AND MUL OR SWAP1 SSTORE POP POP POP POP JUMP JUMPDEST CALLER PUSH20 0xFFFFFFFFFFFFFFFFFFFFFFFFFFFFFFFFFFFFFFFF AND PUSH1 0x0 DUP5 PUSH1 0x40 MLOAD PUSH2 0x435 SWAP2 SWAP1 PUSH2 0x8E5 JUMP JUMPDEST SWAP1 DUP2 MSTORE PUSH1 0x20 ADD PUSH1 0x40 MLOAD DUP1 SWAP2 SUB SWAP1 KECCAK256 PUSH1 0x3 ADD PUSH1 0x0 SWAP1 SLOAD SWAP1 PUSH2 0x100 EXP SWAP1 DIV PUSH20 0xFFFFFFFFFFFFFFFFFFFFFFFFFFFFFFFFFFFFFFFF AND PUSH20 0xFFFFFFFFFFFFFFFFFFFFFFFFFFFFFFFFFFFFFFFF AND EQ PUSH2 0x4BD JUMPI PUSH1 0x40 MLOAD PUSH32 0x8C379A000000000000000000000000000000000000000000000000000000000 DUP2 MSTORE PUSH1 0x4 ADD PUSH2 0x4B4 SWAP1 PUSH2 0x959 JUMP JUMPDEST PUSH1 0x40 MLOAD DUP1 SWAP2 SUB SWAP1 REVERT JUMPDEST PUSH1 0x0 DUP1 DUP5 PUSH1 0x40 MLOAD PUSH2 0x4CE SWAP2 SWAP1 PUSH2 0x8E5 JUMP JUMPDEST SWAP1 DUP2 MSTORE PUSH1 0x20 ADD PUSH1 0x40 MLOAD DUP1 SWAP2 SUB SWAP1 KECCAK256 PUSH1 0x2 ADD PUSH1 0x0 DUP4 PUSH20 0xFFFFFFFFFFFFFFFFFFFFFFFFFFFFFFFFFFFFFFFF AND PUSH20 0xFFFFFFFFFFFFFFFFFFFFFFFFFFFFFFFFFFFFFFFF AND DUP2 MSTORE PUSH1 0x20 ADD SWAP1 DUP2 MSTORE PUSH1 0x20 ADD PUSH1 0x0 KECCAK256 DUP4 PUSH1 0x40 MLOAD PUSH2 0x52A SWAP2 SWAP1 PUSH2 0x8E5 JUMP JUMPDEST SWAP1 DUP2 MSTORE PUSH1 0x20 ADD PUSH1 0x40 MLOAD DUP1 SWAP2 SUB SWAP1 KECCAK256 PUSH1 0x0 PUSH2 0x100 EXP DUP2 SLOAD DUP2 PUSH1 0xFF MUL NOT AND SWAP1 DUP4 ISZERO ISZERO MUL OR SWAP1 SSTORE POP POP POP POP JUMP JUMPDEST PUSH1 0x0 PUSH1 0x40 MLOAD SWAP1 POP SWAP1 JUMP JUMPDEST PUSH1 0x0 DUP1 REVERT JUMPDEST PUSH1 0x0 DUP1 REVERT JUMPDEST PUSH1 0x0 DUP1 REVERT JUMPDEST PUSH1 0x0 DUP1 REVERT JUMPDEST PUSH1 0x0 PUSH1 0x1F NOT PUSH1 0x1F DUP4 ADD AND SWAP1 POP SWAP2 SWAP1 POP JUMP JUMPDEST PUSH32 0x4E487B7100000000000000000000000000000000000000000000000000000000 PUSH1 0x0 MSTORE PUSH1 0x41 PUSH1 0x4 MSTORE PUSH1 0x24 PUSH1 0x0 REVERT JUMPDEST PUSH2 0x5BB DUP3 PUSH2 0x572 JUMP JUMPDEST DUP2 ADD DUP2 DUP2 LT PUSH8 0xFFFFFFFFFFFFFFFF DUP3 GT OR ISZERO PUSH2 0x5DA JUMPI PUSH2 0x5D9 PUSH2 0x583 JUMP JUMPDEST JUMPDEST DUP1 PUSH1 0x40 MSTORE POP POP POP JUMP JUMPDEST PUSH1 0x0 PUSH2 0x5ED PUSH2 0x554 JUMP JUMPDEST SWAP1 POP PUSH2 0x5F9 DUP3 DUP3 PUSH2 0x5B2 JUMP JUMPDEST SWAP2 SWAP1 POP JUMP JUMPDEST PUSH1 0x0 PUSH8 0xFFFFFFFFFFFFFFFF DUP3 GT ISZERO PUSH2 0x619 JUMPI PUSH2 0x618 PUSH2 0x583 JUMP JUMPDEST JUMPDEST PUSH2 0x622 DUP3 PUSH2 0x572 JUMP JUMPDEST SWAP1 POP PUSH1 0x20 DUP2 ADD SWAP1 POP SWAP2 SWAP1 POP JUMP JUMPDEST DUP3 DUP2 DUP4 CALLDATACOPY PUSH1 0x0 DUP4 DUP4 ADD MSTORE POP POP POP JUMP JUMPDEST PUSH1 0x0 PUSH2 0x651 PUSH2 0x64C DUP5 PUSH2 0x5FE JUMP JUMPDEST PUSH2 0x5E3 JUMP JUMPDEST SWAP1 POP DUP3 DUP2 MSTORE PUSH1 0x20 DUP2 ADD DUP5 DUP5 DUP5 ADD GT ISZERO PUSH2 0x66D JUMPI PUSH2 0x66C PUSH2 0x56D JUMP JUMPDEST JUMPDEST PUSH2 0x678 DUP5 DUP3 DUP6 PUSH2 0x62F JUMP JUMPDEST POP SWAP4 SWAP3 POP POP POP JUMP JUMPDEST PUSH1 0x0 DUP3 PUSH1 0x1F DUP4 ADD SLT PUSH2 0x695 JUMPI PUSH2 0x694 PUSH2 0x568 JUMP JUMPDEST JUMPDEST DUP2 CALLDATALOAD PUSH2 0x6A5 DUP5 DUP3 PUSH1 0x20 DUP7 ADD PUSH2 0x63E JUMP JUMPDEST SWAP2 POP POP SWAP3 SWAP2 POP POP JUMP JUMPDEST PUSH1 0x0 PUSH20 0xFFFFFFFFFFFFFFFFFFFFFFFFFFFFFFFFFFFFFFFF DUP3 AND SWAP1 POP SWAP2 SWAP1 POP JUMP JUMPDEST PUSH1 0x0 PUSH2 0x6D9 DUP3 PUSH2 0x6AE JUMP JUMPDEST SWAP1 POP SWAP2 SWAP1 POP JUMP JUMPDEST PUSH2 0x6E9 DUP2 PUSH2 0x6CE JUMP JUMPDEST DUP2 EQ PUSH2 0x6F4 JUMPI PUSH1 0x0 DUP1 REVERT JUMPDEST POP JUMP JUMPDEST PUSH1 0x0 DUP2 CALLDATALOAD SWAP1 POP PUSH2 0x706 DUP2 PUSH2 0x6E0 JUMP JUMPDEST SWAP3 SWAP2 POP POP JUMP JUMPDEST PUSH1 0x0 DUP1 PUSH1 0x0 PUSH1 0x60 DUP5 DUP7 SUB SLT ISZERO PUSH2 0x725 JUMPI PUSH2 0x724 PUSH2 0x55E JUMP JUMPDEST JUMPDEST PUSH1 0x0 DUP5 ADD CALLDATALOAD PUSH8 0xFFFFFFFFFFFFFFFF DUP2 GT ISZERO PUSH2 0x743 JUMPI PUSH2 0x742 PUSH2 0x563 JUMP JUMPDEST JUMPDEST PUSH2 0x74F DUP7 DUP3 DUP8 ADD PUSH2 0x680 JUMP JUMPDEST SWAP4 POP POP PUSH1 0x20 DUP5 ADD CALLDATALOAD PUSH8 0xFFFFFFFFFFFFFFFF DUP2 GT ISZERO PUSH2 0x770 JUMPI PUSH2 0x76F PUSH2 0x563 JUMP JUMPDEST JUMPDEST PUSH2 0x77C DUP7 DUP3 DUP8 ADD PUSH2 0x680 JUMP JUMPDEST SWAP3 POP POP PUSH1 0x40 PUSH2 0x78D DUP7 DUP3 DUP8 ADD PUSH2 0x6F7 JUMP JUMPDEST SWAP2 POP POP SWAP3 POP SWAP3 POP SWAP3 JUMP JUMPDEST PUSH1 0x0 DUP2 ISZERO ISZERO SWAP1 POP SWAP2 SWAP1 POP JUMP JUMPDEST PUSH2 0x7AC DUP2 PUSH2 0x797 JUMP JUMPDEST DUP3 MSTORE POP POP JUMP JUMPDEST PUSH1 0x0 PUSH1 0x20 DUP3 ADD SWAP1 POP PUSH2 0x7C7 PUSH1 0x0 DUP4 ADD DUP5 PUSH2 0x7A3 JUMP JUMPDEST SWAP3 SWAP2 POP POP JUMP JUMPDEST PUSH1 0x0 DUP1 PUSH1 0x0 PUSH1 0x60 DUP5 DUP7 SUB SLT ISZERO PUSH2 0x7E6 JUMPI PUSH2 0x7E5 PUSH2 0x55E JUMP JUMPDEST JUMPDEST PUSH1 0x0 DUP5 ADD CALLDATALOAD PUSH8 0xFFFFFFFFFFFFFFFF DUP2 GT ISZERO PUSH2 0x804 JUMPI PUSH2 0x803 PUSH2 0x563 JUMP JUMPDEST JUMPDEST PUSH2 0x810 DUP7 DUP3 DUP8 ADD PUSH2 0x680 JUMP JUMPDEST SWAP4 POP POP PUSH1 0x20 DUP5 ADD CALLDATALOAD PUSH8 0xFFFFFFFFFFFFFFFF DUP2 GT ISZERO PUSH2 0x831 JUMPI PUSH2 0x830 PUSH2 0x563 JUMP JUMPDEST JUMPDEST PUSH2 0x83D DUP7 DUP3 DUP8 ADD PUSH2 0x680 JUMP JUMPDEST SWAP3 POP POP PUSH1 0x40 DUP5 ADD CALLDATALOAD PUSH8 0xFFFFFFFFFFFFFFFF DUP2 GT ISZERO PUSH2 0x85E JUMPI PUSH2 0x85D PUSH2 0x563 JUMP JUMPDEST JUMPDEST PUSH2 0x86A DUP7 DUP3 DUP8 ADD PUSH2 0x680 JUMP JUMPDEST SWAP2 POP POP SWAP3 POP SWAP3 POP SWAP3 JUMP JUMPDEST PUSH1 0x0 DUP2 MLOAD SWAP1 POP SWAP2 SWAP1 POP JUMP JUMPDEST PUSH1 0x0 DUP2 SWAP1 POP SWAP3 SWAP2 POP POP JUMP JUMPDEST PUSH1 0x0 JUMPDEST DUP4 DUP2 LT ISZERO PUSH2 0x8A8 JUMPI DUP1 DUP3 ADD MLOAD DUP2 DUP5 ADD MSTORE PUSH1 0x20 DUP2 ADD SWAP1 POP PUSH2 0x88D JUMP JUMPDEST PUSH1 0x0 DUP5 DUP5 ADD MSTORE POP POP POP POP JUMP JUMPDEST PUSH1 0x0 PUSH2 0x8BF DUP3 PUSH2 0x874 JUMP JUMPDEST PUSH2 0x8C9 DUP2 DUP6 PUSH2 0x87F JUMP JUMPDEST SWAP4 POP PUSH2 0x8D9 DUP2 DUP6 PUSH1 0x20 DUP7 ADD PUSH2 0x88A JUMP JUMPDEST DUP1 DUP5 ADD SWAP2 POP POP SWAP3 SWAP2 POP POP JUMP JUMPDEST PUSH1 0x0 PUSH2 0x8F1 DUP3 DUP5 PUSH2 0x8B4 JUMP JUMPDEST SWAP2 POP DUP2 SWAP1 POP SWAP3 SWAP2 POP POP JUMP JUMPDEST PUSH1 0x0 DUP3 DUP3 MSTORE PUSH1 0x20 DUP3 ADD SWAP1 POP SWAP3 SWAP2 POP POP JUMP JUMPDEST PUSH32 0x556E617574686F72697A65642061636365737300000000000000000000000000 PUSH1 0x0 DUP3 ADD MSTORE POP JUMP JUMPDEST PUSH1 0x0 PUSH2 0x943 PUSH1 0x13 DUP4 PUSH2 0x8FC JUMP JUMPDEST SWAP2 POP PUSH2 0x94E DUP3 PUSH2 0x90D JUMP JUMPDEST PUSH1 0x20 DUP3 ADD SWAP1 POP SWAP2 SWAP1 POP JUMP JUMPDEST PUSH1 0x0 PUSH1 0x20 DUP3 ADD SWAP1 POP DUP2 DUP2 SUB PUSH1 0x0 DUP4 ADD MSTORE PUSH2 0x972 DUP2 PUSH2 0x936 JUMP JUMPDEST SWAP1 POP SWAP2 SWAP1 POP JUMP JUMPDEST PUSH32 0x5265636F726420616C7265616479206578697374730000000000000000000000 PUSH1 0x0 DUP3 ADD MSTORE POP JUMP JUMPDEST PUSH1 0x0 PUSH2 0x9AF PUSH1 0x15 DUP4 PUSH2 0x8FC JUMP JUMPDEST SWAP2 POP PUSH2 0x9BA DUP3 PUSH2 0x979 JUMP JUMPDEST PUSH1 0x20 DUP3 ADD SWAP1 POP SWAP2 SWAP1 POP JUMP JUMPDEST PUSH1 0x0 PUSH1 0x20 DUP3 ADD SWAP1 POP DUP2 DUP2 SUB PUSH1 0x0 DUP4 ADD MSTORE PUSH2 0x9DE DUP2 PUSH2 0x9A2 JUMP JUMPDEST SWAP1 POP SWAP2 SWAP1 POP JUMP JUMPDEST PUSH32 0x4E487B7100000000000000000000000000000000000000000000000000000000 PUSH1 0x0 MSTORE PUSH1 0x22 PUSH1 0x4 MSTORE PUSH1 0x24 PUSH1 0x0 REVERT JUMPDEST PUSH1 0x0 PUSH1 0x2 DUP3 DIV SWAP1 POP PUSH1 0x1 DUP3 AND DUP1 PUSH2 0xA2C JUMPI PUSH1 0x7F DUP3 AND SWAP2 POP JUMPDEST PUSH1 0x20 DUP3 LT DUP2 SUB PUSH2 0xA3F JUMPI PUSH2 0xA3E PUSH2 0x9E5 JUMP JUMPDEST JUMPDEST POP SWAP2 SWAP1 POP JUMP JUMPDEST PUSH1 0x0 DUP2 SWAP1 POP DUP2 PUSH1 0x0 MSTORE PUSH1 0x20 PUSH1 0x0 KECCAK256 SWAP1 POP SWAP2 SWAP1 POP JUMP JUMPDEST PUSH1 0x0 PUSH1 0x20 PUSH1 0x1F DUP4 ADD DIV SWAP1 POP SWAP2 SWAP1 POP JUMP JUMPDEST PUSH1 0x0 DUP3 DUP3 SHL SWAP1 POP SWAP3 SWAP2 POP POP JUMP JUMPDEST PUSH1 0x0 PUSH1 0x8 DUP4 MUL PUSH2 0xAA7 PUSH32 0xFFFFFFFFFFFFFFFFFFFFFFFFFFFFFFFFFFFFFFFFFFFFFFFFFFFFFFFFFFFFFFFF DUP3 PUSH2 0xA6A JUMP JUMPDEST PUSH2 0xAB1 DUP7 DUP4 PUSH2 0xA6A JUMP JUMPDEST SWAP6 POP DUP1 NOT DUP5 AND SWAP4 POP DUP1 DUP7 AND DUP5 OR SWAP3 POP POP POP SWAP4 SWAP3 POP POP POP JUMP JUMPDEST PUSH1 0x0 DUP2 SWAP1 POP SWAP2 SWAP1 POP JUMP JUMPDEST PUSH1 0x0 DUP2 SWAP1 POP SWAP2 SWAP1 POP JUMP JUMPDEST PUSH1 0x0 PUSH2 0xAF8 PUSH2 0xAF3 PUSH2 0xAEE DUP5 PUSH2 0xAC9 JUMP JUMPDEST PUSH2 0xAD3 JUMP JUMPDEST PUSH2 0xAC9 JUMP JUMPDEST SWAP1 POP SWAP2 SWAP1 POP JUMP JUMPDEST PUSH1 0x0 DUP2 SWAP1 POP SWAP2 SWAP1 POP JUMP JUMPDEST PUSH2 0xB12 DUP4 PUSH2 0xADD JUMP JUMPDEST PUSH2 0xB26 PUSH2 0xB1E DUP3 PUSH2 0xAFF JUMP JUMPDEST DUP5 DUP5 SLOAD PUSH2 0xA77 JUMP JUMPDEST DUP3 SSTORE POP POP POP POP JUMP JUMPDEST PUSH1 0x0 SWAP1 JUMP JUMPDEST PUSH2 0xB3B PUSH2 0xB2E JUMP JUMPDEST PUSH2 0xB46 DUP2 DUP5 DUP5 PUSH2 0xB09 JUMP JUMPDEST POP POP POP JUMP JUMPDEST JUMPDEST DUP2 DUP2 LT ISZERO PUSH2 0xB6A JUMPI PUSH2 0xB5F PUSH1 0x0 DUP3 PUSH2 0xB33 JUMP JUMPDEST PUSH1 0x1 DUP2 ADD SWAP1 POP PUSH2 0xB4C JUMP JUMPDEST POP POP JUMP JUMPDEST PUSH1 0x1F DUP3 GT ISZERO PUSH2 0xBAF JUMPI PUSH2 0xB80 DUP2 PUSH2 0xA45 JUMP JUMPDEST PUSH2 0xB89 DUP5 PUSH2 0xA5A JUMP JUMPDEST DUP2 ADD PUSH1 0x20 DUP6 LT ISZERO PUSH2 0xB98 JUMPI DUP2 SWAP1 POP JUMPDEST PUSH2 0xBAC PUSH2 0xBA4 DUP6 PUSH2 0xA5A JUMP JUMPDEST DUP4 ADD DUP3 PUSH2 0xB4B JUMP JUMPDEST POP POP JUMPDEST POP POP POP JUMP JUMPDEST PUSH1 0x0 DUP3 DUP3 SHR SWAP1 POP SWAP3 SWAP2 POP POP JUMP JUMPDEST PUSH1 0x0 PUSH2 0xBD2 PUSH1 0x0 NOT DUP5 PUSH1 0x8 MUL PUSH2 0xBB4 JUMP JUMPDEST NOT DUP1 DUP4 AND SWAP2 POP POP SWAP3 SWAP2 POP POP JUMP JUMPDEST PUSH1 0x0 PUSH2 0xBEB DUP4 DUP4 PUSH2 0xBC1 JUMP JUMPDEST SWAP2 POP DUP3 PUSH1 0x2 MUL DUP3 OR SWAP1 POP SWAP3 SWAP2 POP POP JUMP JUMPDEST PUSH2 0xC04 DUP3 PUSH2 0x874 JUMP JUMPDEST PUSH8 0xFFFFFFFFFFFFFFFF DUP2 GT ISZERO PUSH2 0xC1D JUMPI PUSH2 0xC1C PUSH2 0x583 JUMP JUMPDEST JUMPDEST PUSH2 0xC27 DUP3 SLOAD PUSH2 0xA14 JUMP JUMPDEST PUSH2 0xC32 DUP3 DUP3 DUP6 PUSH2 0xB6E JUMP JUMPDEST PUSH1 0x0 PUSH1 0x20 SWAP1 POP PUSH1 0x1F DUP4 GT PUSH1 0x1 DUP2 EQ PUSH2 0xC65 JUMPI PUSH1 0x0 DUP5 ISZERO PUSH2 0xC53 JUMPI DUP3 DUP8 ADD MLOAD SWAP1 POP JUMPDEST PUSH2 0xC5D DUP6 DUP3 PUSH2 0xBDF JUMP JUMPDEST DUP7 SSTORE POP PUSH2 0xCC5 JUMP JUMPDEST PUSH1 0x1F NOT DUP5 AND PUSH2 0xC73 DUP7 PUSH2 0xA45 JUMP JUMPDEST PUSH1 0x0 JUMPDEST DUP3 DUP2 LT ISZERO PUSH2 0xC9B JUMPI DUP5 DUP10 ADD MLOAD DUP3 SSTORE PUSH1 0x1 DUP3 ADD SWAP2 POP PUSH1 0x20 DUP6 ADD SWAP5 POP PUSH1 0x20 DUP2 ADD SWAP1 POP PUSH2 0xC76 JUMP JUMPDEST DUP7 DUP4 LT ISZERO PUSH2 0xCB8 JUMPI DUP5 DUP10 ADD MLOAD PUSH2 0xCB4 PUSH1 0x1F DUP10 AND DUP3 PUSH2 0xBC1 JUMP JUMPDEST DUP4 SSTORE POP JUMPDEST PUSH1 0x1 PUSH1 0x2 DUP9 MUL ADD DUP9 SSTORE POP POP POP JUMPDEST POP POP POP POP POP POP JUMP INVALID LOG2 PUSH5 0x6970667358 0x22 SLT KECCAK256 SAR ADDRESS PUSH1 0x82 XOR PUSH15 0x2E9D581E95E48D94C2954F7752F2FA ADDMOD 0xDD 0xAB SGT SWAP3 DUP4 PUSH31 0x298DE57A64736F6C6343000818003300000000000000000000000000000000 "},"methodIdentifiers":{"addRecord(string,string,string)":"3f723c62","grantAccess(string,string,address)":"3935b076","hasAccess(string,string,address)":"09e3141b","revokeAccess(string,string,address)":"a5454021"}}}}}